23:39:13.291130 IP DESKTOP-RBQ9HM2.56406 > hosted-by.i3d.net.50004: UDP, length 199
23:39:13.301135 IP DESKTOP-RBQ9HM2.54188 > static.237.34.217.95.clients.your-server.de.17351: Flags [.], ack 2877703993, win 512, length 0
23:39:13.313127 IP DESKTOP-RBQ9HM2.56406 > hosted-by.i3d.net.50004: UDP, length 196
23:39:13.331116 IP DESKTOP-RBQ9HM2.56406 > hosted-by.i3d.net.50004: UDP, length 186
23:39:13.339155 IP DESKTOP-RBQ9HM2.54501 > 162.159.129.235.443: Flags [P.], seq 203132209:203132294, ack 1742829818, win 510, length 85
23:39:13.351217 IP DESKTOP-RBQ9HM2.56406 > hosted-by.i3d.net.50004: UDP, length 43
23:39:13.371246 IP DESKTOP-RBQ9HM2.56406 > hosted-by.i3d.net.50004: UDP, length 43
23:39:13.372242 IP 162.159.129.235.443 > DESKTOP-RBQ9HM2.54501: Flags [.], ack 85, win 69, length 0
23:39:13.391353 IP DESKTOP-RBQ9HM2.56406 > hosted-by.i3d.net.50004: UDP, length 43
23:39:13.412612 IP DESKTOP-RBQ9HM2.56406 > hosted-by.i3d.net.50004: UDP, length 43

01:31:49.447419 b8:76:3f:28:7c:6d (oui Unknown) > 74:b5:7e:2b:d5:3c (oui Unknown), ethertype IPv4 (0x0800), length 225: DESKTOP-RBQ9HM2.56406 > hosted-by.i3d.net.50004: UDP, length 183
	0x0000:  74b5 7e2b d53c b876 3f28 7c6d 0800 45a0
	0x0010:  00d3 81aa 0000 4011 2787 c0a8 000b bc7a
	0x0020:  531b dc56 c354 00bf 4dd0 9078 3908 cdfc
	0x0030:  e5a2 0000 7639 945b 768d 32a7 9f56 8237
	0x0040:  369f ef93 4c9c 9bb1 767b 48c4 2dc7 d98f
	0x0050:  cbaf 0daa 2ea5 64af 27fb fe1d 57fa c1ea
	0x0060:  90ba 6b65 d20d a823 a156 d885 9091 bb71
	0x0070:  9ae3 9a93 0a21 7edd 11e5 cf69 3309 e4a4
	0x0080:  189b d4e2 39dc 9014 8572 2a2b b24d 34c7
	0x0090:  3cfa aea3 22af b84c b8ad 621d a4aa b9c9
	0x00a0:  a50d cd74 cbf6 a583 b456 2ccc 9308 58ff
	0x00b0:  d6a7 a851 3780 2dfe bf0b fcaf 14cd 9e73
	0x00c0:  bb8c 77e4 1ec2 f217 bdb3 566f ac58 7663
	0x00d0:  dc62 5060 744b 8f33 27da 5452 8693 3807
	0x00e0:  00
01:31:49.469959 b8:76:3f:28:7c:6d (oui Unknown) > 74:b5:7e:2b:d5:3c (oui Unknown), ethertype IPv4 (0x0800), length 221: DESKTOP-RBQ9HM2.56406 > hosted-by.i3d.net.50004: UDP, length 179
	0x0000:  74b5 7e2b d53c b876 3f28 7c6d 0800 45a0
	0x0010:  00cf 81ab 0000 4011 278a c0a8 000b bc7a
	0x0020:  531b dc56 c354 00bb b759 9078 3909 cdfc
	0x0030:  e962 0000 7639 f3e0 125b 7543 7c4f 870d
	0x0040:  9cb6 979a eb78 0219 52ab 6759 2e8e c086
	0x0050:  124b 0b1d 60a1 b748 bb07 5a8b 68c3 f18e
	0x0060:  1e05 2a25 5e76 000d 88eb 93d0 2b25 a729
	0x0070:  7b9b 07c3 9b1c 71b6 f9bb 7e55 124f a26d
	0x0080:  3e56 755b a778 0fbb ecd9 c9b6 6fee fc08
	0x0090:  8491 71db a239 2be7 6758 18bf 5459 80f3
	0x00a0:  564e f0c7 8d33 3b85 0edd 8f8e a10c 86b1
	0x00b0:  1e5c 7985 7207 6ae0 3541 5482 0c3d b5fb
	0x00c0:  b88e 1255 c97f 6340 f3b4 eac0 6d22 9d04
	0x00d0:  88f2 104d dafa c610 0d94 3807 00
01:31:49.488962 b8:76:3f:28:7c:6d (oui Unknown) > 74:b5:7e:2b:d5:3c (oui Unknown), ethertype IPv4 (0x0800), length 139: DESKTOP-RBQ9HM2.54501 > 162.159.129.235.443: Flags [P.], seq 203617991:203618076, ack 1742858490, win 514, length 85
	0x0000:  74b5 7e2b d53c b876 3f28 7c6d 0800 4500
	0x0010:  007d 1322 4000 4006 421b c0a8 000b a29f
	0x0020:  81eb d4e5 01bb 0c22 f6c7 67e1 e8fa 5018
	0x0030:  0202 5213 0000 1703 0300 5000 0000 0000
	0x0040:  0056 cbc5 44fa f388 8681 339d 3252 a649
	0x0050:  69b7 5be9 3540 05ab 2602 ca5b f7d6 d8da
	0x0060:  95ea 861b 3b2c 245f 7f40 6556 2a51 babc
	0x0070:  22a8 7ee4 eed4 81ba 6871 62c2 be46 5b09
	0x0080:  af96 f988 ec1e 7a67 7947 c4
01:31:49.492960 b8:76:3f:28:7c:6d (oui Unknown) > 74:b5:7e:2b:d5:3c (oui Unknown), ethertype IPv4 (0x0800), length 85: DESKTOP-RBQ9HM2.56406 > hosted-by.i3d.net.50004: UDP, length 43
	0x0000:  74b5 7e2b d53c b876 3f28 7c6d 0800 45a0
	0x0010:  0047 81ac 0000 4011 2811 c0a8 000b bc7a
	0x0020:  531b dc56 c354 0033 557d 9078 390a cdfc
	0x0030:  ed22 0000 7639 630c f189 b7fe 0aa2 5af1
	0x0040:  3954 14d6 a674 676b 51ef 6284 441c 5ada
	0x0050:  e595 3807 00
01:31:49.508164 b8:76:3f:28:7c:6d (oui Unknown) > 74:b5:7e:2b:d5:3c (oui Unknown), ethertype IPv4 (0x0800), length 85: DESKTOP-RBQ9HM2.56406 > hosted-by.i3d.net.50004: UDP, length 43
	0x0000:  74b5 7e2b d53c b876 3f28 7c6d 0800 45a0
	0x0010:  0047 81ad 0000 4011 2810 c0a8 000b bc7a
	0x0020:  531b dc56 c354 0033 ce2d 9078 390b cdfc
	0x0030:  f0e2 0000 7639 08d4 4996 7f23 2e5b 6371
	0x0040:  f6b9 0e37 22b6 c634 717b 9be2 1196 3100
	0x0050:  e996 3807 00

01:42:12.371283 IP DESKTOP-RBQ9HM2 > ec2-52-29-85-218.eu-central-1.compute.amazonaws.com: ICMP echo request, id 1, seq 152, length 40
	0x0000:  74b5 7e2b d53c b876 3f28 7c6d 0800 4500  t.~+.<.v?(|m..E.
	0x0010:  003c e918 0000 4001 46fe c0a8 000b 341d  .<....@.F.....4.
	0x0020:  55da 0800 4cc3 0001 0098 6162 6364 6566  U...L.....abcdef
	0x0030:  6768 696a 6b6c 6d6e 6f70 7172 7374 7576  ghijklmnopqrstuv
	0x0040:  7761 6263 6465 6667 6869                 wabcdefghi
01:42:17.191621 IP DESKTOP-RBQ9HM2 > ec2-52-29-85-218.eu-central-1.compute.amazonaws.com: ICMP echo request, id 1, seq 153, length 40
	0x0000:  74b5 7e2b d53c b876 3f28 7c6d 0800 4500  t.~+.<.v?(|m..E.
	0x0010:  003c e919 0000 4001 46fd c0a8 000b 341d  .<....@.F.....4.
	0x0020:  55da 0800 4cc2 0001 0099 6162 6364 6566  U...L.....abcdef
	0x0030:  6768 696a 6b6c 6d6e 6f70 7172 7374 7576  ghijklmnopqrstuv
	0x0040:  7761 6263 6465 6667 6869                 wabcdefghi
01:42:22.191765 IP DESKTOP-RBQ9HM2 > ec2-52-29-85-218.eu-central-1.compute.amazonaws.com: ICMP echo request, id 1, seq 154, length 40
	0x0000:  74b5 7e2b d53c b876 3f28 7c6d 0800 4500  t.~+.<.v?(|m..E.
	0x0010:  003c e91a 0000 4001 46fc c0a8 000b 341d  .<....@.F.....4.
	0x0020:  55da 0800 4cc1 0001 009a 6162 6364 6566  U...L.....abcdef
	0x0030:  6768 696a 6b6c 6d6e 6f70 7172 7374 7576  ghijklmnopqrstuv
	0x0040:  7761 6263 6465 6667 6869                 wabcdefghi

01:51:50.857933 IP DESKTOP-RBQ9HM2 > ec2-52-29-85-218.eu-central-1.compute.amazonaws.com: ICMP echo request, id 1, seq 190, length 72
	0x0000:  74b5 7e2b d53c b876 3f28 7c6d 0800 4500  t.~+.<.v?(|m..E.
	0x0010:  005c e93e 0000 0101 85b8 c0a8 000b 341d  .\.>..........4.
	0x0020:  55da 0800 f740 0001 00be 0000 0000 0000  U....@..........
	0x0030:  0000 0000 0000 0000 0000 0000 0000 0000  ................
	0x0040:  0000 0000 0000 0000 0000 0000 0000 0000  ................
	0x0050:  0000 0000 0000 0000 0000 0000 0000 0000  ................
	0x0060:  0000 0000 0000 0000 0000                 ..........
01:51:50.859933 IP DESKTOP-RBQ9HM2 > ec2-52-29-85-218.eu-central-1.compute.amazonaws.com: ICMP echo request, id 1, seq 191, length 72
	0x0000:  74b5 7e2b d53c b876 3f28 7c6d 0800 4500  t.~+.<.v?(|m..E.
	0x0010:  005c e93f 0000 0101 85b7 c0a8 000b 341d  .\.?..........4.
	0x0020:  55da 0800 f73f 0001 00bf 0000 0000 0000  U....?..........
	0x0030:  0000 0000 0000 0000 0000 0000 0000 0000  ................
	0x0040:  0000 0000 0000 0000 0000 0000 0000 0000  ................
	0x0050:  0000 0000 0000 0000 0000 0000 0000 0000  ................
	0x0060:  0000 0000 0000 0000 0000                 ..........
01:51:50.861931 IP DESKTOP-RBQ9HM2 > ec2-52-29-85-218.eu-central-1.compute.amazonaws.com: ICMP echo request, id 1, seq 192, length 72
	0x0000:  74b5 7e2b d53c b876 3f28 7c6d 0800 4500  t.~+.<.v?(|m..E.
	0x0010:  005c e940 0000 0101 85b6 c0a8 000b 341d  .\.@..........4.
	0x0020:  55da 0800 f73e 0001 00c0 0000 0000 0000  U....>..........
	0x0030:  0000 0000 0000 0000 0000 0000 0000 0000  ................
	0x0040:  0000 0000 0000 0000 0000 0000 0000 0000  ................
	0x0050:  0000 0000 0000 0000 0000 0000 0000 0000  ................
	0x0060:  0000 0000 0000 0000 0000                 ..........
01:52:00.870962 IP DESKTOP-RBQ9HM2 > ec2-52-29-85-218.eu-central-1.compute.amazonaws.com: ICMP echo request, id 1, seq 193, length 72
	0x0000:  74b5 7e2b d53c b876 3f28 7c6d 0800 4500  t.~+.<.v?(|m..E.
	0x0010:  005c e941 0000 0201 84b5 c0a8 000b 341d  .\.A..........4.
	0x0020:  55da 0800 f73d 0001 00c1 0000 0000 0000  U....=..........
	0x0030:  0000 0000 0000 0000 0000 0000 0000 0000  ................
	0x0040:  0000 0000 0000 0000 0000 0000 0000 0000  ................
	0x0050:  0000 0000 0000 0000 0000 0000 0000 0000  ................
	0x0060:  0000 0000 0000 0000 0000                 ..........
01:52:00.883148 IP DESKTOP-RBQ9HM2 > ec2-52-29-85-218.eu-central-1.compute.amazonaws.com: ICMP echo request, id 1, seq 194, length 72
	0x0000:  74b5 7e2b d53c b876 3f28 7c6d 0800 4500  t.~+.<.v?(|m..E.
	0x0010:  005c e942 0000 0201 84b4 c0a8 000b 341d  .\.B..........4.
	0x0020:  55da 0800 f73c 0001 00c2 0000 0000 0000  U....<..........
	0x0030:  0000 0000 0000 0000 0000 0000 0000 0000  ................
	0x0040:  0000 0000 0000 0000 0000 0000 0000 0000  ................
	0x0050:  0000 0000 0000 0000 0000 0000 0000 0000  ................
	0x0060:  0000 0000 0000 0000 0000                 ..........
01:52:00.887146 IP DESKTOP-RBQ9HM2 > ec2-52-29-85-218.eu-central-1.compute.amazonaws.com: ICMP echo request, id 1, seq 195, length 72
	0x0000:  74b5 7e2b d53c b876 3f28 7c6d 0800 4500  t.~+.<.v?(|m..E.
	0x0010:  005c e943 0000 0201 84b3 c0a8 000b 341d  .\.C..........4.
	0x0020:  55da 0800 f73b 0001 00c3 0000 0000 0000  U....;..........
	0x0030:  0000 0000 0000 0000 0000 0000 0000 0000  ................
	0x0040:  0000 0000 0000 0000 0000 0000 0000 0000  ................
	0x0050:  0000 0000 0000 0000 0000 0000 0000 0000  ................
	0x0060:  0000 0000 0000 0000 0000                 ..........
01:52:11.140305 IP DESKTOP-RBQ9HM2 > ec2-52-29-85-218.eu-central-1.compute.amazonaws.com: ICMP echo request, id 1, seq 196, length 72
	0x0000:  74b5 7e2b d53c b876 3f28 7c6d 0800 4500  t.~+.<.v?(|m..E.
	0x0010:  005c e944 0000 0301 83b2 c0a8 000b 341d  .\.D..........4.
	0x0020:  55da 0800 f73a 0001 00c4 0000 0000 0000  U....:..........
	0x0030:  0000 0000 0000 0000 0000 0000 0000 0000  ................
	0x0040:  0000 0000 0000 0000 0000 0000 0000 0000  ................
	0x0050:  0000 0000 0000 0000 0000 0000 0000 0000  ................
	0x0060:  0000 0000 0000 0000 0000                 ..........
